{
  "_format": "hh3-artifact-1",
  "contractName": "ReportRegistryWithJson",
  "sourceName": "contracts/ReportRegistryWithJson.sol",
  "abi": [
    {
      "anonymous": false,
      "inputs": [
        {
          "indexed": true,
          "internalType": "bytes32",
          "name": "reportHash",
          "type": "bytes32"
        },
        {
          "indexed": true,
          "internalType": "address",
          "name": "submitter",
          "type": "address"
        },
        {
          "indexed": false,
          "internalType": "uint256",
          "name": "timestamp",
          "type": "uint256"
        },
        {
          "indexed": false,
          "internalType": "string",
          "name": "reportJson",
          "type": "string"
        }
      ],
      "name": "ReportJsonEmitted",
      "type": "event"
    },
    {
      "anonymous": false,
      "inputs": [
        {
          "indexed": true,
          "internalType": "bytes32",
          "name": "reportHash",
          "type": "bytes32"
        },
        {
          "indexed": true,
          "internalType": "address",
          "name": "submitter",
          "type": "address"
        },
        {
          "indexed": false,
          "internalType": "uint256",
          "name": "timestamp",
          "type": "uint256"
        },
        {
          "indexed": false,
          "internalType": "bool",
          "name": "storedOnChain",
          "type": "bool"
        },
        {
          "indexed": false,
          "internalType": "string",
          "name": "ipfsCid",
          "type": "string"
        }
      ],
      "name": "ReportStored",
      "type": "event"
    },
    {
      "inputs": [
        {
          "internalType": "bytes32",
          "name": "reportHash",
          "type": "bytes32"
        }
      ],
      "name": "getReportByHash",
      "outputs": [
        {
          "components": [
            {
              "internalType": "bytes32",
              "name": "reportHash",
              "type": "bytes32"
            },
            {
              "internalType": "address",
              "name": "submitter",
              "type": "address"
            },
            {
              "internalType": "uint256",
              "name": "timestamp",
              "type": "uint256"
            },
            {
              "internalType": "bool",
              "name": "storedOnChain",
              "type": "bool"
            },
            {
              "internalType": "string",
              "name": "ipfsCid",
              "type": "string"
            }
          ],
          "internalType": "struct ReportRegistryWithJson.ReportRecord",
          "name": "record",
          "type": "tuple"
        }
      ],
      "stateMutability": "view",
      "type": "function"
    },
    {
      "inputs": [
        {
          "internalType": "uint256",
          "name": "index",
          "type": "uint256"
        }
      ],
      "name": "getReportHashByIndex",
      "outputs": [
        {
          "internalType": "bytes32",
          "name": "",
          "type": "bytes32"
        }
      ],
      "stateMutability": "view",
      "type": "function"
    },
    {
      "inputs": [
        {
          "internalType": "bytes32",
          "name": "reportHash",
          "type": "bytes32"
        }
      ],
      "name": "getStoredJson",
      "outputs": [
        {
          "internalType": "string",
          "name": "",
          "type": "string"
        }
      ],
      "stateMutability": "view",
      "type": "function"
    },
    {
      "inputs": [],
      "name": "getTotalReports",
      "outputs": [
        {
          "internalType": "uint256",
          "name": "",
          "type": "uint256"
        }
      ],
      "stateMutability": "view",
      "type": "function"
    },
    {
      "inputs": [
        {
          "internalType": "bytes32",
          "name": "reportHash",
          "type": "bytes32"
        }
      ],
      "name": "storeReportHash",
      "outputs": [],
      "stateMutability": "nonpayable",
      "type": "function"
    },
    {
      "inputs": [
        {
          "internalType": "string",
          "name": "ipfsCid",
          "type": "string"
        },
        {
          "internalType": "bytes32",
          "name": "reportHash",
          "type": "bytes32"
        }
      ],
      "name": "storeReportIpfs",
      "outputs": [],
      "stateMutability": "nonpayable",
      "type": "function"
    },
    {
      "inputs": [
        {
          "internalType": "string",
          "name": "reportJson",
          "type": "string"
        }
      ],
      "name": "storeReportJSON",
      "outputs": [],
      "stateMutability": "nonpayable",
      "type": "function"
    },
    {
      "inputs": [
        {
          "internalType": "string",
          "name": "reportJson",
          "type": "string"
        }
      ],
      "name": "storeReportOnChain",
      "outputs": [],
      "stateMutability": "nonpayable",
      "type": "function"
    },
    {
      "inputs": [
        {
          "internalType": "bytes32",
          "name": "reportHash",
          "type": "bytes32"
        }
      ],
      "name": "verifyReport",
      "outputs": [
        {
          "internalType": "bool",
          "name": "exists",
          "type": "bool"
        },
        {
          "internalType": "address",
          "name": "submitter",
          "type": "address"
        },
        {
          "internalType": "uint256",
          "name": "timestamp",
          "type": "uint256"
        },
        {
          "internalType": "bool",
          "name": "storedOnChain",
          "type": "bool"
        },
        {
          "internalType": "string",
          "name": "ipfsCid",
          "type": "string"
        }
      ],
      "stateMutability": "view",
      "type": "function"
    }
  ],
  "bytecode": "0x6080604052348015600e575f5ffd5b50611bf88061001c5f395ff3fe608060405234801561000f575f5ffd5b5060043610610091575f3560e01c806354a0b77d1161006457806354a0b77d14610131578063567dd8b11461014d578063635ae5321461017d57806369e9ff04146101ad578063d4e99500146101c957610091565b8063108f42d0146100955780631fd22601146100c557806328018b8d146100f95780634a35f77114610115575b5f5ffd5b6100af60048036038101906100aa9190610fd0565b6101e7565b6040516100bc919061106b565b60405180910390f35b6100df60048036038101906100da9190610fd0565b610288565b6040516100f09594939291906110fc565b60405180910390f35b610113600480360381019061010e9190610fd0565b610417565b005b61012f600480360381019061012a91906111b5565b610617565b005b61014b600480360381019061014691906111b5565b610858565b005b6101676004803603810190610162919061122a565b610ac9565b6040516101749190611264565b60405180910390f35b61019760048036038101906101929190610fd0565b610b35565b6040516101a49190611374565b60405180910390f35b6101c760048036038101906101c29190611394565b610cc6565b005b6101d1610f46565b6040516101de91906113f1565b60405180910390f35b606060015f8381526020019081526020015f20805461020590611437565b80601f016020809104026020016040519081016040528092919081815260200182805461023190611437565b801561027c5780601f106102535761010080835404028352916020019161027c565b820191905f5260205f20905b81548152906001019060200180831161025f57829003601f168201915b50505050509050919050565b5f5f5f5f60605f5f5f8881526020019081526020015f206040518060a00160405290815f8201548152602001600182015f9054906101000a900473ffffffffffffffffffffffffffffffffffffffff1673ffffffffffffffffffffffffffffffffffffffff1673ffffffffffffffffffffffffffffffffffffffff16815260200160028201548152602001600382015f9054906101000a900460ff1615151515815260200160048201805461033c90611437565b80601f016020809104026020016040519081016040528092919081815260200182805461036890611437565b80156103b35780601f1061038a576101008083540402835291602001916103b3565b820191905f5260205f20905b81548152906001019060200180831161039657829003601f168201915b50505050508152505090505f8160400151036103ec575f5f5f5f60405180602001604052805f815250955095509550955095505061040e565b6001816020015182604001518360600151846080015195509550955095509550505b91939590929450565b5f5f1b810361045b576040517f08c379a0000000000000000000000000000000000000000000000000000000008152600401610452906114b1565b60405180910390fd5b5f5f5f8381526020019081526020015f2060020154146104b0576040517f08c379a00000000000000000000000000000000000000000000000000000000081526004016104a790611519565b60405180910390fd5b6040518060a001604052808281526020013373ffffffffffffffffffffffffffffffffffffffff1681526020014281526020015f1515815260200160405180602001604052805f8152508152505f5f8381526020019081526020015f205f820151815f01556020820151816001015f6101000a81548173ffffffffffffffffffffffffffffffffffffffff021916908373ffffffffffffffffffffffffffffffffffffffff160217905550604082015181600201556060820151816003015f6101000a81548160ff02191690831515021790555060808201518160040190816105999190611704565b50905050600281908060018154018082558091505060019003905f5260205f20015f90919091909150553373ffffffffffffffffffffffffffffffffffffffff16817fe13362b66f51641ac4df2ec212a5c2ad6f829c604cd44a4fd41afade53d72b89425f60405161060c9291906117f6565b60405180910390a350565b5f828290501161065c576040517f08c379a00000000000000000000000000000000000000000000000000000000081526004016106539061187a565b60405180910390fd5b5f828260405161066d9291906118d4565b604051809103902090505f5f5f8381526020019081526020015f2060020154146106cc576040517f08c379a00000000000000000000000000000000000000000000000000000000081526004016106c390611519565b60405180910390fd5b828260015f8481526020019081526020015f2091826106ec9291906118f6565b506040518060a001604052808281526020013373ffffffffffffffffffffffffffffffffffffffff16815260200142815260200160011515815260200160405180602001604052805f8152508152505f5f8381526020019081526020015f205f820151815f01556020820151816001015f6101000a81548173ffffffffffffffffffffffffffffffffffffffff021916908373ffffffffffffffffffffffffffffffffffffffff160217905550604082015181600201556060820151816003015f6101000a81548160ff02191690831515021790555060808201518160040190816107d79190611704565b50905050600281908060018154018082558091505060019003905f5260205f20015f90919091909150553373ffffffffffffffffffffffffffffffffffffffff16817fe13362b66f51641ac4df2ec212a5c2ad6f829c604cd44a4fd41afade53d72b8942600160405161084b9291906117f6565b60405180910390a3505050565b5f828290501161089d576040517f08c379a00000000000000000000000000000000000000000000000000000000081526004016108949061187a565b60405180910390fd5b5f82826040516108ae9291906118d4565b604051809103902090505f5f5f8381526020019081526020015f20600201541461090d576040517f08c379a000000000000000000000000000000000000000000000000000000000815260040161090490611519565b60405180910390fd5b6040518060a001604052808281526020013373ffffffffffffffffffffffffffffffffffffffff1681526020014281526020015f1515815260200160405180602001604052805f8152508152505f5f8381526020019081526020015f205f820151815f01556020820151816001015f6101000a81548173ffffffffffffffffffffffffffffffffffffffff021916908373ffffffffffffffffffffffffffffffffffffffff160217905550604082015181600201556060820151816003015f6101000a81548160ff02191690831515021790555060808201518160040190816109f69190611704565b50905050600281908060018154018082558091505060019003905f5260205f20015f90919091909150553373ffffffffffffffffffffffffffffffffffffffff16817fe13362b66f51641ac4df2ec212a5c2ad6f829c604cd44a4fd41afade53d72b89425f604051610a699291906117f6565b60405180910390a33373ffffffffffffffffffffffffffffffffffffffff16817f33cd7c9265dd1572e4185a55a97c1b032bb815d2998a5c272e5a860196bbac1d428686604051610abc939291906119ef565b60405180910390a3505050565b5f6002805490508210610b11576040517f08c379a0000000000000000000000000000000000000000000000000000000008152600401610b0890611a69565b60405180910390fd5b60028281548110610b2557610b24611a87565b5b905f5260205f2001549050919050565b610b3d610f52565b5f5f5f8481526020019081526020015f206002015403610b92576040517f08c379a0000000000000000000000000000000000000000000000000000000008152600401610b8990611afe565b60405180910390fd5b5f5f8381526020019081526020015f206040518060a00160405290815f8201548152602001600182015f9054906101000a900473ffffffffffffffffffffffffffffffffffffffff1673ffffffffffffffffffffffffffffffffffffffff1673ffffffffffffffffffffffffffffffffffffffff16815260200160028201548152602001600382015f9054906101000a900460ff16151515158152602001600482018054610c3f90611437565b80601f0160208091040260200160405190810160405280929190818152602001828054610c6b90611437565b8015610cb65780601f10610c8d57610100808354040283529160200191610cb6565b820191905f5260205f20905b815481529060010190602001808311610c9957829003601f168201915b5050505050815250509050919050565b5f8383905011610d0b576040517f08c379a0000000000000000000000000000000000000000000000000000000008152600401610d0290611b66565b60405180910390fd5b5f5f1b8103610d4f576040517f08c379a0000000000000000000000000000000000000000000000000000000008152600401610d46906114b1565b60405180910390fd5b5f5f5f8381526020019081526020015f206002015414610da4576040517f08c379a0000000000000000000000000000000000000000000000000000000008152600401610d9b90611519565b60405180910390fd5b6040518060a001604052808281526020013373ffffffffffffffffffffffffffffffffffffffff1681526020014281526020015f1515815260200184848080601f0160208091040260200160405190810160405280939291908181526020018383808284375f81840152601f19601f820116905080830192505050505050508152505f5f8381526020019081526020015f205f820151815f01556020820151816001015f6101000a81548173ffffffffffffffffffffffffffffffffffffffff021916908373ffffffffffffffffffffffffffffffffffffffff160217905550604082015181600201556060820151816003015f6101000a81548160ff0219169083151502179055506080820151816004019081610ec29190611704565b50905050600281908060018154018082558091505060019003905f5260205f20015f90919091909150553373ffffffffffffffffffffffffffffffffffffffff16817fe13362b66f51641ac4df2ec212a5c2ad6f829c604cd44a4fd41afade53d72b89425f8787604051610f399493929190611b84565b60405180910390a3505050565b5f600280549050905090565b6040518060a001604052805f81526020015f73ffffffffffffffffffffffffffffffffffffffff1681526020015f81526020015f15158152602001606081525090565b5f5ffd5b5f5ffd5b5f819050919050565b610faf81610f9d565b8114610fb9575f5ffd5b50565b5f81359050610fca81610fa6565b92915050565b5f60208284031215610fe557610fe4610f95565b5b5f610ff284828501610fbc565b91505092915050565b5f81519050919050565b5f82825260208201905092915050565b8281835e5f83830152505050565b5f601f19601f8301169050919050565b5f61103d82610ffb565b6110478185611005565b9350611057818560208601611015565b61106081611023565b840191505092915050565b5f6020820190508181035f8301526110838184611033565b905092915050565b5f8115159050919050565b61109f8161108b565b82525050565b5f73ffffffffffffffffffffffffffffffffffffffff82169050919050565b5f6110ce826110a5565b9050919050565b6110de816110c4565b82525050565b5f819050919050565b6110f6816110e4565b82525050565b5f60a08201905061110f5f830188611096565b61111c60208301876110d5565b61112960408301866110ed565b6111366060830185611096565b81810360808301526111488184611033565b90509695505050505050565b5f5ffd5b5f5ffd5b5f5ffd5b5f5f83601f84011261117557611174611154565b5b8235905067ffffffffffffffff81111561119257611191611158565b5b6020830191508360018202830111156111ae576111ad61115c565b5b9250929050565b5f5f602083850312156111cb576111ca610f95565b5b5f83013567ffffffffffffffff8111156111e8576111e7610f99565b5b6111f485828601611160565b92509250509250929050565b611209816110e4565b8114611213575f5ffd5b50565b5f8135905061122481611200565b92915050565b5f6020828403121561123f5761123e610f95565b5b5f61124c84828501611216565b91505092915050565b61125e81610f9d565b82525050565b5f6020820190506112775f830184611255565b92915050565b61128681610f9d565b82525050565b611295816110c4565b82525050565b6112a4816110e4565b82525050565b6112b38161108b565b82525050565b5f82825260208201905092915050565b5f6112d382610ffb565b6112dd81856112b9565b93506112ed818560208601611015565b6112f681611023565b840191505092915050565b5f60a083015f8301516113165f86018261127d565b506020830151611329602086018261128c565b50604083015161133c604086018261129b565b50606083015161134f60608601826112aa565b506080830151848203608086015261136782826112c9565b9150508091505092915050565b5f6020820190508181035f83015261138c8184611301565b905092915050565b5f5f5f604084860312156113ab576113aa610f95565b5b5f84013567ffffffffffffffff8111156113c8576113c7610f99565b5b6113d486828701611160565b935093505060206113e786828701610fbc565b9150509250925092565b5f6020820190506114045f8301846110ed565b92915050565b7f4e487b71000000000000000000000000000000000000000000000000000000005f52602260045260245ffd5b5f600282049050600182168061144e57607f821691505b6020821081036114615761146061140a565b5b50919050565b7f656d7074792068617368000000000000000000000000000000000000000000005f82015250565b5f61149b600a83611005565b91506114a682611467565b602082019050919050565b5f6020820190508181035f8301526114c88161148f565b9050919050565b7f616c72656164792073746f7265640000000000000000000000000000000000005f82015250565b5f611503600e83611005565b915061150e826114cf565b602082019050919050565b5f6020820190508181035f830152611530816114f7565b9050919050565b7f4e487b71000000000000000000000000000000000000000000000000000000005f52604160045260245ffd5b5f819050815f5260205f209050919050565b5f6020601f8301049050919050565b5f82821b905092915050565b5f600883026115c07fffffffffffffffffffffffffffffffffffffffffffffffffffffffffffffffff82611585565b6115ca8683611585565b95508019841693508086168417925050509392505050565b5f819050919050565b5f6116056116006115fb846110e4565b6115e2565b6110e4565b9050919050565b5f819050919050565b61161e836115eb565b61163261162a8261160c565b848454611591565b825550505050565b5f5f905090565b61164961163a565b611654818484611615565b505050565b5b818110156116775761166c5f82611641565b60018101905061165a565b5050565b601f8211156116bc5761168d81611564565b61169684611576565b810160208510156116a5578190505b6116b96116b185611576565b830182611659565b50505b505050565b5f82821c905092915050565b5f6116dc5f19846008026116c1565b1980831691505092915050565b5f6116f483836116cd565b9150826002028217905092915050565b61170d82610ffb565b67ffffffffffffffff81111561172657611725611537565b5b6117308254611437565b61173b82828561167b565b5f60209050601f83116001811461176c575f841561175a578287015190505b61176485826116e9565b8655506117cb565b601f19841661177a86611564565b5f5b828110156117a15784890151825560018201915060208501945060208101905061177c565b868310156117be57848901516117ba601f8916826116cd565b8355505b6001600288020188555050505b505050505050565b50565b5f6117e15f83611005565b91506117ec826117d3565b5f82019050919050565b5f6060820190506118095f8301856110ed565b6118166020830184611096565b8181036040830152611827816117d6565b90509392505050565b7f656d707479206a736f6e000000000000000000000000000000000000000000005f82015250565b5f611864600a83611005565b915061186f82611830565b602082019050919050565b5f6020820190508181035f83015261189181611858565b9050919050565b5f81905092915050565b828183375f83830152505050565b5f6118bb8385611898565b93506118c88385846118a2565b82840190509392505050565b5f6118e08284866118b0565b91508190509392505050565b5f82905092915050565b61190083836118ec565b67ffffffffffffffff81111561191957611918611537565b5b6119238254611437565b61192e82828561167b565b5f601f83116001811461195b575f8415611949578287013590505b61195385826116e9565b8655506119ba565b601f19841661196986611564565b5f5b828110156119905784890135825560018201915060208501945060208101905061196b565b868310156119ad57848901356119a9601f8916826116cd565b8355505b6001600288020188555050505b50505050505050565b5f6119ce8385611005565b93506119db8385846118a2565b6119e483611023565b840190509392505050565b5f604082019050611a025f8301866110ed565b8181036020830152611a158184866119c3565b9050949350505050565b7f696e646578204f4f4200000000000000000000000000000000000000000000005f82015250565b5f611a53600983611005565b9150611a5e82611a1f565b602082019050919050565b5f6020820190508181035f830152611a8081611a47565b9050919050565b7f4e487b71000000000000000000000000000000000000000000000000000000005f52603260045260245ffd5b7f7265706f727420646f6573206e6f7420657869737400000000000000000000005f82015250565b5f611ae8601583611005565b9150611af382611ab4565b602082019050919050565b5f6020820190508181035f830152611b1581611adc565b9050919050565b7f656d7074792063696400000000000000000000000000000000000000000000005f82015250565b5f611b50600983611005565b9150611b5b82611b1c565b602082019050919050565b5f6020820190508181035f830152611b7d81611b44565b9050919050565b5f606082019050611b975f8301876110ed565b611ba46020830186611096565b8181036040830152611bb78184866119c3565b90509594505050505056fea26469706673582212204047ae3c9b1b9f7b5b3e8cec00dffe42af67c2088e84707b110a14dc05f4c00064736f6c634300081c0033",
  "linkReferences": {},
  "deployedLinkReferences": {},
  "immutableReferences": {},
  "inputSourceName": "project/contracts/ReportRegistryWithJson.sol",
  "buildInfoId": "solc-0_8_28-4c6f64f550630d856d0991905027d5abfed20f4b"
}